:100000000C943A000C9457000C9457000C94570031
:100010000C9457000C9457000C9457000C94570004
:100020000C9457000C9457000C9457000C94270222
:100030000C9457000C9457000C9457000C945700E4
:100040000C9457000C9457000C947F000C945700AC
:100050000C9457000C9457000C9457000C945700C4
:100060000C9457000C9457006364696E6F7073753D
:1000700078585B0011241FBECFEFD8E0DEBFCDBFA4
:1000800011E0A0E0B1E0E4E9F5E102C005900D92D5
:10009000AC3CB107D9F722E0ACECB1E001C01D9255
:1000A000A833B207E1F70E94EC020C94C80A0C9442
:1000B00000002091D3019091D20181E0291380E0CA
:1000C00008950E945900811118C0E091D201F0E01A
:1000D000EC52FE4F80812091D20130E02F5F3F4FE4
:1000E0002F733078332334F421503109206C3F6F63
:1000F0002F5F3F4F2093D20108958FEF08951F92F5
:100100000F920FB60F9211242F933F938F939F93CB
:10011000EF93FF933091C6008091D30190E0019658
:100120008F739078992324F40197806C9F6F0196C8
:100130002091D201281741F0E091D301F0E0EC5278
:10014000FE4F30838093D301FF91EF919F918F9168
:100150003F912F910F900FBE0F901F901895109206
:10016000C50087E68093C40088E98093C10086E0DB
:100170008093C20078940895E0ECF0E0908195FFC0
:10018000FDCF8093C6000895CF93DF93EC01888163
:10019000882331F021960E94BC0089918111FBCF08
:1001A000DF91CF910895CF92DF92EF92FF921F934C
:1001B000CF93DF936C017B01142F85E290E00E94C6
:1001C0003603EC010097C1F14FE150E0B6010E9407
:1001D00065041F8E9701ADECBCEC0E942703969539
:1001E0008795969587959695879599A388A31AA341
:1001F0001CA21BA2A091D001B091D101109729F0AF
:1002000092968C919297181740F4BCA3ABA3D0930D
:10021000D101C093D00110C0DF019396ED91FC9104
:100220009497309719F082A11817B0F7FCA3EBA3AD
:100230009496DC93CE939397DF91CF911F91FF908B
:10024000EF90DF90CF9008959F92AF92BF92CF92A0
:10025000DF92EF92FF920F931F93CF93DF93CDB76F
:10026000DEB7E2970FB6F894DEBF0FBECDBF0091A8
:10027000D0011091D1010115110599F181E090E0B3
:100280000F2EF6E0CF2EF1E0DF2EF02D0F2EF2E351
:100290009F2EF02D9E012F5F3F4F79015C013FEFB4
:1002A000A31AB30A1F930F93F80122A11F922F9351
:1002B0009F938F93DF92CF921F929F92FF92EF9224
:1002C0000E947404C7010E94C400F80103A114A194
:1002D000C5010FB6F894DEBF0FBECDBF01151105E5
:1002E000E9F6E2960FB6F894DEBF0FBECDBFDF9100
:1002F000CF911F910F91FF90EF90DF90CF90BF9023
:10030000AF909F900895CF93DF93C091D001D0918B
:10031000D1012097B9F06091CE017091CF0145E2F3
:1003200050E0CE010E94790A8091CE019091CF01D8
:1003300085969093CF018093CE010BA0DCA1C02DB8
:10034000209749F783E191E00E94C400DF91CF91AB
:1003500008950F931F93CF93DF931092CF011092C4
:10036000CE010AE010E085E290E00E943603EC0145
:100370000097F1F06091CE017091CF0145E250E01D
:100380000E94690A8091CE019091CF018596909349
:10039000CF018093CE018091D0019091D1019CA397
:1003A0008BA3D093D101C093D00101501109D9F68C
:1003B0008AE291E00E94C400DF91CF911F910F91DA
:1003C00008950F931F93CF93DF93C091D001D091E5
:1003D000D1012097B9F100E010E088A199A1009720
:1003E00041F0019799A388A38E010BA0DCA1C02D39
:1003F00027C084E491E00E94C400CE010E94C400A2
:1004000082E491E00E94C4000115110571F48BA1F2
:100410009CA19093D1018093D001CE010E94CE0384
:10042000C091D001D091D1010BC08BA19CA1F8014A
:1004300094A383A3CE010E94CE03F801C3A1D4A14B
:10044000209759F6DF91CF911F910F9108951F9238
:100450000F920FB60F9211248F9381E08093CD01FC
:100460008F910F900FBE0F901F901895E1E8F0E06C
:1004700080818860808383EC99E0909389008093E9
:100480008800808183608083EFE6F0E08081826075
:10049000808378940895EF92FF920F931F93CF93E8
:1004A000DF93CDB7DEB766970FB6F894DEBF0FBE09
:1004B000CDBF8C0146E050E06BE471E00E94570430
:1004C000892B31F4289A82E591E00E94C40077C01C
:1004D00047E050E06AE571E0C8010E945704892BAB
:1004E00031F4289882E691E00E94C40068C044E09C
:1004F00050E06BE671E0C8010E945704892B61F45B
:1005000045E060E070E0C80104960E94D30080E7F7
:1005100091E00E94C40053C046E050E06BE771E0F8
:10052000C8010E945704892B11F5CE0101967C0168
:100530009F938F9344969F938F9382E891E09F932C
:100540008F930A5F1F4F1F930F930E94A4046D891E
:100550007E8945E0C7010E94D3008AE891E00E94AD
:10056000C4000FB6F894DEBF0FBECDBF28C044E074
:1005700050E06EE971E0C8010E945704892B19F41C
:100580000E9424011CC044E050E063EA71E0C8010D
:100590000E945704892B19F40E94830110C044E083
:1005A00050E068EA71E0C8010E945704892B19F4F1
:1005B0000E94A90104C08DEA91E00E94C4006696E1
:1005C0000FB6F894DEBF0FBECDBFDF91CF911F9164
:1005D0000F91FF90EF9008950E94AF000E943602A5
:1005E000209A8EEB91E00E94C4000E945900811174
:1005F00025C00E946100C82F0E94BC00CA3011F0C3
:10060000CD3081F48091CC01E82FF0E0EC5EFD4F1D
:100610001082882321F084E192E00E944B02109224
:10062000CC010CC0E091CC01EF3140F481E08E0FA1
:100630008093CC01F0E0EC5EFD4FC0838091CD0152
:10064000882399F21092CD010E94E101CECFA29FA2
:10065000B001B39FC001A39F700D811D1124911D96
:10066000B29F700D811D1124911D08950F931F934A
:10067000CF93DF938230910510F482E090E0E09117
:100680003602F091370220E030E0A0E0B0E0309791
:1006900019F1408151810281138148175907C8F02F
:1006A0008417950769F4109731F012960C931297FE
:1006B00013961C9327C0009336021093370222C072
:1006C0002115310519F04217530718F49A01BD019D
:1006D000EF01DF01F801DBCF21153105F9F0281B0F
:1006E000390B2430310580F48A819B8161157105B5
:1006F00021F0FB019383828304C09093370280939F
:100700003602FE01329644C0FE01E20FF31F8193D0
:10071000919322503109398328833AC020913402C1
:1007200030913502232B41F42091020130910301D5
:100730003093350220933402209100013091010161
:100740002115310541F42DB73EB740910401509178
:100750000501241B350BE0913402F0913502E217BC
:10076000F307A0F42E1B3F0B2817390778F0AC01D4
:100770004E5F5F4F2417350748F04E0F5F1F5093B1
:100780003502409334028193919302C0E0E0F0E09F
:10079000CF01DF91CF911F910F910895CF93DF93F8
:1007A000009709F481C0FC01329713821282A09154
:1007B0003602B0913702109781F420813181820F87
:1007C000931F20913402309135022817390751F5D3
:1007D000F0933502E093340267C0ED0120E030E091
:1007E000CE17DF0740F44A815B819E014115510518
:1007F000F1F0EA01F5CFD383C28340815181840FA8
:10080000951FC817D90759F488819981840F951FBE
:100810000296918380838A819B81938382832115B1
:10082000310529F4F0933702E09336023DC0E90127
:10083000FB83EA8349915991C40FD51FEC17FD073B
:1008400061F480819181840F951F0296E90199835B
:100850008883828193819B838A83E0E0F0E0129613
:100860008D919C911397009719F0FD01DC01F7CF52
:100870008D919C9111979D012E5F3F4F820F931F89
:1008800020913402309135022817390769F43097E6
:1008900029F4109237021092360202C0138212829B
:1008A000B0933502A0933402DF91CF910895FB01FC
:1008B000DC014150504030F08D910190801919F4C5
:1008C0000020B9F7881B990B0895FB01DC0141500A
:1008D000504048F001900D920020C9F701C01D92D0
:1008E00041505040E0F70895AEE0B0E0EAE7F4E0B0
:1008F0000C949F0A0D891E898F89988D26E02C8380
:100900001A83098397FF02C080E090E801979E83D5
:100910008D83AE01455E5F4F698D7A8DCE01019664
:100920000E94BD044D815E8157FD0AC02F8138852C
:10093000421753070CF49A01F801E20FF31F1082DB
:100940002E96E4E00C94BB0AAEE0B0E0EAEAF4E0F4
:100950000C94A10A85E08C838B899C899A83898376
:10096000AE01495E5F4F6D897E89CE0101960E947E
:100970003A082E96E2E00C94BD0AABE0B0E0E3EC5E
:10098000F4E00C94910A6C017B018A01FC0117824E
:100990001682838181FFCCC1CE0101963C01F60114
:1009A0009381F70193FD859193FF81917F018823C6
:1009B00009F4BAC1853239F493FD859193FF819191
:1009C0007F01853229F4B60190E00E94B309E7CF98
:1009D000912C212C312CFFE1F315D8F08B3279F0DA
:1009E00038F4803279F08332A1F4232D20611DC0C8
:1009F0008D3261F0803369F4232D216016C0832D80
:100A00008260382EE32DE4603E2E2AC0F32DF8607C
:100A10001DC037FC2DC020ED280F2A3040F08E324B
:100A2000B9F436FC81C1232D2064322E19C036FE64
:100A300006C08AE0989E200D1124922E11C0EAE093
:100A40002E9E200D1124222EF32DF0623F2E08C081
:100A50008C3621F4832D8068382E02C0883641F40C
:100A6000F70193FD859193FF81917F018111B3CFB0
:100A7000982F9F7D9554933028F40C5F1F4F9FE370
:100A800099830DC0833631F0833771F0833509F0D7
:100A900059C021C0F801808189830E5F1F4F8824CF
:100AA0008394912C530113C02801F2E04F0E511C86
:100AB000F801A080B18036FE03C0692D70E002C04D
:100AC0006FEF7FEFC5010E946A094C018201F32D8F
:100AD000FF773F2E16C0280122E0420E511CF8017C
:100AE000A080B18036FE03C0692D70E002C06FEFB8
:100AF0007FEFC5010E945F094C01F32DF0683F2E86
:100B0000820133FC1BC0822D90E088169906B0F458
:100B1000B60180E290E00E94B3092A94F4CFF50177
:100B200037FC859137FE81915F01B60190E00E940C
:100B3000B30921102A9421E0821A910881149104AA
:100B400071F7E8C0843611F0893641F5F80137FEB7
:100B500007C060817181828193810C5F1F4F08C043
:100B600060817181072E000C880B990B0E5F1F4F5F
:100B7000F32DFF763F2E97FF09C0909580957095D5
:100B800061957F4F8F4F9F4FF0683F2E2AE030E0F6
:100B9000A3010E94080A882E861845C0853731F4C3
:100BA000232D2F7EB22E2AE030E025C0932D997F91
:100BB000B92E8F36C1F018F4883579F0B5C080377A
:100BC00019F0883721F0B0C0E92FE061BE2EB4FEE5
:100BD0000DC0FB2DF460BF2E09C034FE0AC0292FC2
:100BE0002660B22E06C028E030E005C020E130E0EB
:100BF00002C020E132E0F801B7FE07C060817181D8
:100C0000828193810C5F1F4F06C06081718180E0FB
:100C100090E00E5F1F4FA3010E94080A882E8618DD
:100C2000FB2DFF773F2E36FE0DC0232D2E7FA22EEB
:100C3000891458F434FE0BC032FC09C0832D8E7E1B
:100C4000A82E05C0B82CA32C03C0B82C01C0B92C09
:100C5000A4FE0FC0FE01E80DF11D8081803321F458
:100C60009A2D997EA92E09C0A2FE06C0B394B39412
:100C700004C08A2D867809F0B394A3FC11C0A0FEAD
:100C800006C0B21488F4280C922C9B180EC0B21423
:100C900060F4B60180E290E00E94B309B394F7CF0C
:100CA000B21418F42B1802C0982C212CA4FE10C0EA
:100CB000B60180E390E00E94B309A2FE17C0A1FC38
:100CC00003C088E790E002C088E590E0B6010CC060
:100CD0008A2D867859F0A1FE02C08BE201C080E225
:100CE000A7FC8DE2B60190E00E94B309891438F4A4
:100CF000B60180E390E00E94B3099A94F7CF8A94FA
:100D0000F301E80DF11D8081B60190E00E94B30966
:100D10008110F5CF222009F442CEB60180E290E0A6
:100D20000E94B3092A94F6CFF6018681978102C00A
:100D30008FEF9FEF2B96E2E10C94AD0A20FD09C0E6
:100D4000FC0123FD05C022FF02C07383628351832F
:100D50004083089544FD17C046FD17C0AB01BC0198
:100D6000DA01FB01AA0FBB1FEE1FFF1F1094D1F782
:100D70004A0F5B1F6E1F7F1FCB01BA01660F771FE3
:100D8000881F991F09C033E001C034E0660F771F48
:100D9000881F991F3150D1F7620F711D811D911D60
:100DA00008950F931F93CF93DF938C01C8010E9486
:100DB0007509EC0197FD08C00E944B09892BB1F71A
:100DC000B801CE010E94EF09CE01DF91CF911F91B2
:100DD0000F9108958F929F92AF92BF92EF92FF92E0
:100DE0000F931F93CF93DF938C01D62F7A01B22EEE
:100DF0000E9475099C0133272B32310531F02D32C9
:100E0000310561F48B2D8068B82ED15011F480E04B
:100E100068C0C8010E94750997FDF9CFCB2DCD7F21
:100E20002B2D207309F58033F9F4AA24AA94AD0E72
:100E300009F443C0C8010E94750997FD3EC09C019A
:100E40002F7D33272835310549F4C264D250A9F1EA
:100E5000C8010E94750997FF07C02FC0B6FE02C0E7
:100E6000C26001C0C261DA2D812C912C540120EDA9
:100E7000280F283080F0C4FF04C0B8010E94EF0999
:100E800019C02A3040F0C6FFF8CF2F7D3FEE320F59
:100E9000363098F727504C2FC501B4010E94AA069E
:100EA0004B015C01C260D15059F0C8010E94750924
:100EB00097FFDDCFC1FD04C0AACF812C912C540136
:100EC000C7FF08C0B094A09490948094811C911C9A
:100ED000A11CB11C2C2FB501A401C7010E949E06C4
:100EE00081E0DF91CF911F910F91FF90EF90BF9024
:100EF000AF909F908F900895A0E2B0E0E2E8F7E015
:100F00000C94940A5C01962E7A01F9018E010F5F10
:100F10001F4F680180E2D8011D928A95E9F7D5013B
:100F200013968C9080E090E0612C712C30E061E0B1
:100F300070E083FC259183FE21918F01522E2111B7
:100F400003C080E090E092C02E3511F4009751F17B
:100F5000432F50E0481759073CF42D3559F12D32F5
:100F600019F4772009F103C0772009F46AC0452DF0
:100F7000469546954695D601A40FB11D452D47705F
:100F80008B0102C0000F111F4A95E2F7A8015C9186
:100F9000452B4C93651459F0561410F45394E7CF35
:100FA0005A94E5CF31E004C07724739401C0712CCA
:100FB0000196BFCF772019F08E8180628E83311128
:100FC00003C08824839417C0F6019E012F5D3F4F14
:100FD0008081809581932E173F07D1F7F2CFE114DE
:100FE000F10429F0D7018C93F70131967F019A948F
:100FF000812C9920F9F0C5010E94750997FD18C050
:10100000FC01FF2723E0F595E7952A95E1F7EC0D24
:10101000FD1D208130E0AC014770552702C0359599
:1010200027954A95E2F720FDDACFB5010E94EF0936
:10103000811087CFE114F10411F0D7011C92C8018F
:1010400015C0422F469546954695D601A40FB11D71
:10105000422F47708B0102C0000F111F4A95E2F723
:10106000A8015C91452B4C93622EA2CFA096EFE095
:101070000C94B00AA0E0B0E0E0E4F8E00C94940A2C
:101080006C01EB015A01FC0117821682512CF6010A
:10109000E380FE01E3FC8591E3FE8191182FEF01CF
:1010A000882309F4EEC090E00E944B09892B21F0BF
:1010B000C6010E94D106EBCF153241F4FE01E3FCDC
:1010C0001591E3FE1191EF01153281F4C6010E94E2
:1010D000750997FDD4C0412F50E09C013327241798
:1010E0003507A9F2B6010E94EF09CBC01A3239F4D4
:1010F000E3FC1591E3FE1191EF0101E001C000E076
:10110000F12C20ED210F2A3080F402606F2D70E069
:1011100080E090E040E20E94AA06F62EFE01E3FC89
:101120001591E3FE1191EF01ECCF01FF03C0F11027
:1011300003C0A7C0FF24FA94183619F01C3651F0EA
:1011400010C0FE01E3FC1591E3FE1191EF0118368A
:1011500041F408600460FE01E3FC1591E3FE119187
:10116000EF01112309F48DC0612F70E088E690E053
:101170000E945409892B09F484C000FD07C0F501C1
:1011800080809180C50102965C0102C0812C912C67
:101190001E3651F4F6014681578160E070E0202F41
:1011A000C4010E949E0673CF1336A9F401FD02C04C
:1011B000FF24F394C6010E94750997FD60C0811455
:1011C000910429F0F4018083C40101964C01FA9442
:1011D000F110F0CF50C01B3559F49E01A4016F2DC2
:1011E000C6010E947C07EC01892B09F044C03EC077
:1011F000C6010E94D10697FD42C01F3661F128F456
:10120000143639F1193651F128C0133771F01537FA
:1012100001F123C08114910429F0F4016082C4011A
:1012200001964C01FA94FF2071F0C6010E947509E5
:101230003C0197FD08C00E944B09892B59F3B60168
:10124000C3010E94EF0981149104A9F0F4011082F6
:1012500012C0006203C0006101C00064202FA4011D
:101260006F2DC6010E94EA06811105C0F601838137
:10127000807329F406C000FD0ACF539408CF55208F
:1012800019F0852D90E002C08FEF9FEFCDB7DEB74C
:10129000EFE00C94B00A91110C94660A803219F0B8
:1012A00089508550C8F70895FC010590061621F075
:1012B0000020D9F7C00108953197CF010895FC01AE
:1012C0000590615070400110D8F7809590958E0F71
:1012D0009F1F0895FC016150704001900110D8F7E4
:1012E000809590958E0F9F1F0895CF93DF93EC010B
:1012F0002B8120FF33C026FF0AC02F7B2B838E81DA
:101300009F8101969F838E838A8190E029C022FF6E
:101310000FC0E881F9818081082E000C990B00979D
:1013200019F420622B831AC03196F983E8830EC02A
:10133000EA85FB85099597FF09C02B81019611F07D
:1013400080E201C080E1822B8B8308C02E813F8127
:101350002F5F3F4F3F832E83992702C08FEF9FEF70
:10136000DF91CF9108950F931F93CF93DF93FB01EC
:10137000238121FD03C08FEF9FEF2CC022FF16C0F9
:1013800046815781248135814217530744F4A08157
:10139000B1819D012F5F3F4F318320838C93268144
:1013A00037812F5F3F4F3783268314C08B01EC01B9
:1013B000FB010084F185E02D0995892BE1F6D80128
:1013C00016968D919C911797019617969C938E93E4
:1013D0001697CE01DF91CF911F910F910895FB01D8
:1013E000238120FF12C026FD10C08F3F3FEF9307DF
:1013F00061F082832F7D20642383268137812150F1
:10140000310937832683992708958FEF9FEF089539
:10141000FA01AA27283051F1203181F1E8946F9325
:101420006E7F6E5F7F4F8F4F9F4FAF4FB1E03ED0CB
:10143000B4E03CD0670F781F891F9A1FA11D680F69
:10144000791F8A1F911DA11D6A0F711D811D911D9C
:10145000A11D20D009F468943F912AE0269F112411
:101460003019305D3193DEF6CF010895462F477075
:10147000405D4193B3E00FD0C9F7F6CF462F4F70D0
:10148000405D4A3318F0495D31FD4052419302D02E
:10149000A9F7EACFB4E0A6959795879577956795D4
:1014A000BA95C9F700976105710508959B01AC01D4
:1014B0000A2E06945795479537952795BA95C9F7FB
:1014C000620F731F841F951FA01D089599278827F9
:1014D0000895DC01CB01FC01F999FECF06C0F2BDF5
:1014E000E1BDF89A319600B40D9241505040B8F7E2
:1014F0000895DC01CB0103C02D910E94840A415064
:101500005040D0F70895262FF999FECF1FBA92BD0B
:1015100081BD20BD0FB6F894FA9AF99A0FBE0196D4
:1015200008952F923F924F925F926F927F928F9287
:101530009F92AF92BF92CF92DF92EF92FF920F9362
:101540001F93CF93DF93CDB7DEB7CA1BDB0B0FB66C
:10155000F894DEBF0FBECDBF09942A883988488829
:101560005F846E847D848C849B84AA84B984C884BF
:10157000DF80EE80FD800C811B81AA81B981CE0FB6
:10158000D11D0FB6F894DEBF0FBECDBFED0108959B
:04159000F894FFCFFD
:1015940000003802200025643A205B25645D202584
:1015A400730A004C6F677320736176656420746FEF
:1015B40020454550524F4D2E0A004C6F6773206CE6
:1015C4006F616465642066726F6D20454550524FAB
:1015D4004D2E0A005461736B3A20004C4544204F51
:1015E4004E004C4544204F4E0A004C4544204F4683
:1015F40046004C4544204F46460A004C4F472000C5
:101604004C6F672061646465640A0044454C415929
:101614002000256420255B5E5D0044656C6179656E
:1016240064207461736B2061646465640A004C49CE
:1016340053540053415645004C4F414400556E6B82
:101644006E6F776E20636F6D6D616E640A005379FF
:0C1654007374656D2052656164790A00B2
:00000001FF
